:020000040800F2
:1000000000000120ED0400083D0500083D05000842
:100010003D0500083D0500083D0500080000000002
:100020000000000000000000000000003D05000886
:100030003D050008000000003D0500083D050008E2
:10004000000000003D0500083D0500083D050008D2
:100050003D0500083D050008C10400083D050008F5
:100060003D0500083D0500083D0500083D05000868
:100070003D0500083D0500083D0500083D05000858
:100080003D0500083D0500083D0500080000000092
:100090000000000000000000000000003D05000816
:1000A0003D0500083D0500083D0500083D05000828
:1000B0003D0500083D0500083D0500083D05000818
:1000C0003D0500083D0500083D0500083D05000808
:1000D0003D0500083D0500083D0500080000000042
:1000E0003D0500083D0500083D0500080000000032
:1000F0000000000000000000000000003D050008B6
:10010000000000003D0500083D0500083D05000811
:1001100000000000000000000000000000000000DF
:100120003D0500083D0500083D0500083D050008A7
:100130003D05000800000000000000000000000075
:100140000000000000000000000000003D05000865
:100150003D0500083D0500083D0500083D05000877
:100160003D0500083D0500080000000000000000FB
:10017000000000000000000000000000000000007F
:10018000000000000000000000000000000000006F
:040190003D05000821
:1001940010B5054C237833B9044B13B10448AFF3BD
:1001A40000800123237010BD000000200000000027
:1001B4008805000808B5034B1BB103490348AFF396
:1001C400008008BD0000000004000020880500082D
:1001D40080B400AF474B1B68464A43F48033136036
:1001E40000BF444B1B6803F40033002BF9D0424B8F
:1001F4001B68414A43F4E06313603F4B1B683E4A6B
:1002040043F0020313603B4B1B6C3A4A43F08053A8
:1002140013643A4B1B68394A43F400431360354B6B
:10022400344A9B689360334B9B68324A43F480534F
:100234009360304B2F4A9B6893602E4B5B682D4A2A
:1002440043F0190353602B4B5B682A4A23F02603BF
:100254005360284B5B68274A43F4A8435360254BFB
:100264005B68244A23F42F535360224B5B68214A72
:1002740023F4403353601F4B4FF480029A601D4BAC
:100284001B681C4A43F08073136000BF194B1B6842
:1002940003F00073002BF9D0164B9B68154A43F00A
:1002A4000203936000BF134B9B6803F00C03082BFD
:1002B400F9D1104B1B6C0F4A43F008031364104B25
:1002C40053229A620E4B4FF6FF72DA620C4B1B6894
:1002D4000B4A43F00103136000BF094B1B6903F091
:1002E4000103002BF9D000BF00BFBD465DF8047BBD
:1002F400704700BF00380240003C024000700040DC
:10030400000C004080B483B000AF0346FB80084B70
:1003140000225A6200BF064B5A6AFB889A42FAD3FB
:1003240000BF00BF0C37BD465DF8047B704700BFBB
:10033400000C004080B584B000AF0346FB8000236E
:10034400FB6006E04FF47A70FFF7DCFFFB680133D3
:10035400FB60FB88FA689A42F4DB00BF00BF1037E9
:10036400BD4680BD80B483B000AF0346FB7197F9EE
:100374000730002B0BDBFB7903F01F02074997F9C9
:1003840007305B09012000FA02F241F8232000BF84
:100394000C37BD465DF8047B704700BF00E100E008
:1003A40080B500AFFFF714FF00F01AF800F068F80A
:1003B4000A4B9B69094A43F40053936141F2883024
:1003C400FFF7B8FF054B9B69044A43F4005393615C
:1003D40041F28830FFF7AEFF00BFE9E700080240B2
:1003E40080B400AF234B1B6B224A43F00103136319
:1003F400204B1B6B1F4A43F0040313631D4B5B6CC0
:100404001C4A43F4804353641B4B1B681A4A23F071
:1004140003031360184BDB68174A23F00303D3600C
:10042400164B1B68154A43F080631360134B1B681B
:10043400124A23F000631360104B5B680F4A23F4E5
:10044400005353600D4B9B680C4A43F04063936028
:100454000A4BDB68094A43F08063D360074BDB68CF
:10046400064A23F00063D36000BFBD465DF8047BF9
:10047400704700BF003802400000024000080240FC
:1004840080B500AF0B4B9B680A4A23F00F039360BF
:10049400094B1B68084A43F001031360064BDB68F1
:1004A400054A43F00103D3600620FFF75BFF00BF5A
:1004B40080BD00BF00380140003C014080B400AF63
:1004C400084B5B6903F00103002B05D0054B5B6906
:1004D400044A43F00103536100BFBD465DF8047B49
:1004E400704700BF003C01400D488546AFF30080D3
:1004F4000C480D490D4A002302E0D458C45004337B
:10050400C4188C42F9D30A4A0A4C002301E0136050
:100514000432A242FBD300F011F8FFF741FFFEE7DB
:10052400000001200000002000000020A8050008B1
:10053400000000201C000020FEE7000070B50D4DF7
:100544000D4C641BA4100026A64209D10B4D0C4C83
:1005540000F018F8641BA4100026A64205D170BD53
:1005640055F8043B98470136EEE755F8043B9847A5
:100574000136F2E7A0050008A0050008A005000860
:10058400A4050008F8B500BFF8BC08BC9E46704737
:0C059400F8B500BFF8BC08BC9E467047DC
:0405A000B901000895
:0405A40095010008B5
:04000005080004EDFE
:00000001FF
